:020000000A28CC
:10000800A0000A0EA10006308A00C52E42308400E6
:1000180083130D308001840AFF3E031D0E28A23091
:100028008400831340308001840AFF3E031D172893
:1000380022308400831740308001840AFF3E031D6C
:10004800202801308A00E929031383127B088A00DB
:100058007A0882000030CF1F3D28CF09D409FF0954
:10006800FE09FE0A0319FF0A0319D40A0319CF0A65
:100078000130FD1F4C28FD09FC09FB09FA09FA0AA1
:100088000319FB0A0319FC0A0319FD0A013A02388D
:100098008400D001D101D201D3012130D500FA0D5D
:1000A800FB0DFC0DFD0D7E08D50303199328D00D1B
:1000B800D10DD20DD30D4F08530203196628031C26
:1000C800532878285408520203196D28031C532812
:1000D80078287F08510203197428031C53287828AC
:1000E8007E085002031C53287E08D0020318832878
:1000F8000130D10203188328D202031CD3037F08DE
:10010800D10203188B280130D202031CD3035408F0
:10011800D202031CD3034F08D30203145328041C30
:10012800A028FA09FB09FC09FD09FA0A0319FB0AC8
:100138000319FC0A0319FD0A841C0800D009D10917
:10014800D209D309D00A0319D10A0319D20A03190B
:10015800D30A080003138312FC19D1287C193E29FD
:100168007C1E0800031383127A088400C020FF0055
:10017800840AC020FE000800FB1DC4288317CD2870
:100188007B1DC8288317CD28FB1CCC288313CD28BA
:100198008313000803138312080003138312282013
:1001A800FF00FA0A0319FB0A0A128A112820FE0026
:1001B8000130FA02031CFB03080003138312FC1925
:1001C800FC287C1902297C1E0800031383127A0874
:1001D8008400FB1DF1288317FA287B1DF528831757
:1001E800FA28FB1CF9288313FA288313000808004F
:1001F800031383127B088A007A08820058210313AC
:1002080083127E080800031383120B08FB008B136C
:100218007A0803178D0003137E0803178C008316D2
:100228008C130C1555308D00AA308D008C140C11D0
:100238008C181C29031383120D12FB1B8B17080043
:10024800031383127C1907297C1E080003138312E9
:100258007A0884007E08FB1D332983173C297B1DFF
:10026800372983173C29FB1C3B2983133C2983131B
:1002780080000800031383120B08FB008B137A0815
:1002880003178D0083168C130C1483120C080313A8
:10029800FF0003178D0A83160C1483120C0803132E
:1002A800FE00FB1B8B1708000B0803138312FB00CF
:1002B8008B137A0803178D0083168C130C14831282
:1002C8000C080313FE00FB1B8B170800FC0AFC0B31
:1002D8006E2908000310FA0DFB0D6B294D08031950
:1002E800C729013A03197C29033A031D08009829F4
:1002F80002304C06031D8C298316C03081008714F8
:1003080083125B08B2005A08B1000A128A118725C5
:1003180083120313CC01CC0A8316051185168312A8
:100328000714C901C801080002304C060319A8299E
:10033800831680308100871083125608B20059084E
:10034800B1000A128A11F825831203130230CC0077
:100358008316051585128312071483168C128312CF
:100368004308CA00F83E8316A9008312C301C901D5
:100378004308B300330AC3003308A23E8400831342
:100388000008C200080002304C06031DD729831656
:10039800C0308100871483125B08B2005A08B1008C
:1003A8000A128A11872583120313CC0183160515B7
:1003B80085168312071083168C1683120830C30023
:1003C800C601C7014E10CE1008008312031387011F
:1003D800831692308700831286018316FD308600CB
:1003E8008312850183160B308500831289309F00A4
:1003F800831684309F002430980083129030980030
:1004080083160A30990083128E018F0131309000D3
:1004180083164030940083123030940083168C0188
:1004280083124B3092008316FF3092008312071517
:10043800C401C5010A128A117826831203130A120D
:100448008A11FE24831203130A128A1500208312CC
:1004580003135608AC005908AB000A128A11872604
:10046800831203135608B2005908B1000A128A1100
:10047800F8258316031380308100871083120A122F
:100488008A111325003A0A128A11031D562A83126B
:1004980003130830AB001330AC00E430AD000A168B
:1004A8008A112D20831203135B08B2005A08B10089
:1004B8000A128A11872583160313C0308100871416
:1004C80083120A128A111325003A0A128A11031D8F
:1004D800782A831203130830AB001330AC00CE30F7
:1004E800AD000A168A112D20831203130230CC00A6
:1004F800CD010430C000A230C10041088400AA30F8
:1005080083138000C003C10AC0080A128A11031DA0
:10051800812A83163330A600CC30A7002330FA0096
:1005280083120A128A1158217E088316A800A9018D
:100538008312051205118512831605088312C1005E
:10054800831624308504831205080A128A11851A35
:10055800B02A0A128A15C12683120313410883168A
:100568008500831286100512CE114E120830AB009A
:100578001630AC002130AD000A168A112D208312E6
:1005880003130830AB000F30AC00F630AD000A168C
:100598008A110020831203130830AB001630AC0018
:1005A800C430AD000A168A110020831203130830E4
:1005B800AB000730AC00FE30AD000A168A110020EF
:1005C800831203130830AB001630AC00DC30AD00EA
:1005D8000A168A110020831203130830AB00163064
:1005E800AC00EE30AD000A168A112D2083120313D9
:1005F8001130AA000A128A11E124FA000A128A119B
:100608007A1B222BFA1A152B033A03194C2B043A9E
:1006180003193E2B143A0319682B043A03195A2B71
:100628001E2C233A0319842B043A0319762B143A07
:100638000319A02B043A0319922B1E2C7A19312B7B
:10064800433A0319BC2B133A0319102C013A031926
:10065800F42B023A0319D82B1E2C473A0319AE2B58
:10066800133A0319022C013A0319E62B023A03192B
:10067800CA2B1E2C831203130830AB001430AC00B5
:10068800E530AD000A168A1100200A128A11292CB9
:10069800831203130830AB001630AC008430AD0071
:1006A8000A168A1100200A128A11292C83120313B0
:1006B8000830AB001430AC00BB30AD000A168A110C
:1006C80000200A128A11292C831203130830AB0068
:1006D8001630AC007630AD000A168A1100200A12D6
:1006E8008A11292C831203130830AB001430AC0094
:1006F800A630AD000A168A1100200A128A11292C88
:10070800831203130830AB001630AC004C30AD0038
:100718000A168A1100200A128A11292C831203133F
:100728000830AB001430AC00D030AD000A168A1186
:1007380000200A128A11292C831203130830AB00F7
:100748001630AC005A30AD000A168A1100200A1281
:100758008A11292C831203130830AB001430AC0023
:10076800FA30AD000A168A1100200A128A11292CC3
:10077800831203130830AB001630AC006830AD00AC
:100788000A168A1100200A128A11292C83120313CF
:100798000830AB001430AC009130AD000A168A1155
:1007A80000200A128A11292C831203130830AB0087
:1007B8001630AC001230AD000A168A1100200A1259
:1007C8008A11292C831203130830AB001330AC00B4
:1007D800FA30AD000A168A1100200A128A11292C53
:1007E800831203130830AB001530AC00E530AD00C0
:1007F8000A168A1100200A128A11292C831203135F
:100808000830AB001330AC00B830AD000A168A11BE
:1008180000200A128A11292C831203130830AB0016
:100828001530AC00F430AD000A168A1100200A1207
:100838008A11292C831203130830AB001530AC0041
:100848004830AD000A168A110020831203130830BD
:10085800AB001630AC00EE30AD000A168A112D2020
:10086800831203130A128A11BD2690308B0083125B
:1008780003134D084C060A128A110319462C0A1252
:100888008A1172210A128A114E1E4E2C4E120A1219
:100898008A11BD26831203130A128A11CE1D582C01
:1008A800CE110A128A11B52683120313450844068D
:1008B8000A128A110319712C4408223E84008317F6
:1008C8000008FA00A9017A08AA000A128A119327D7
:1008D80083120313440A3F39C4000A128A118C1E7A
:1008E8009A2CCC08031D9A2C91011215981C822C65
:1008F800831698129816831218121816181D882C29
:100908001A0883169812981683124308C000400AE2
:10091800C3004008A23E84001A08831380004308DD
:10092800C33E031C992C0230CD008C128C1CA32CC6
:10093800121183168C1083120230CD008C100C1CFF
:100948003B2C831605088312C100831624308504C6
:1009580083120519BB2C4308C000400AC300400895
:10096800A23E84005708831380000230CD00851A08
:10097800C92C4308C000400AC3004008A23E8400B6
:100988005808831380000230CD0041088316850083
:1009980083120C103B2C071113080310290D013882
:1009A80093008316141CD52C8312071513082A08E4
:1009B8009300831614180800DD2C07111308031080
:1009C8002A0DFE3993008316141CE72C8312141386
:1009D80087168316871683120715FF309300831630
:1009E800141CF32C83121308A90083168712831290
:1009F80029080800AA010A128A11E1240313AB008E
:100A0800FE39AA00A9010A128A11CF2483122B08E1
:100A18000138AA00A9010A128A11CF240800AA01E4
:100A28000B30A9000A128A11CF2483120313A630AF
:100A3800AA000E30A9000A128A11CF2483127F302F
:100A4800AB00FE30AC000A128A112E2DFF30AC0725
:100A5800031CAB030E30AA000A128A11E1240839DC
:100A68000A128A11031D492D2B08FB002C08FA00D5
:100A7800FD010130FC008030FB067D067B02031D72
:100A8800472D7C087A0203182A2D7F30AB00FE30F0
:100A9800AC00522DFF30AC07031CAB030D30AA008D
:100AA8000A128A11E12401390A128A11031D6D2DD7
:100AB8002B08FB002C08FA00FD010130FC008030F7
:100AC800FB067D067B02031D6B2D7C087A0203184A
:100AD8004E2D2630AA000E30A9000A128A11CF2402
:100AE8008312F030AA000B30A9000A128A11CF2411
:100AF80083120D30AA000A128A11E1240139013A41
:100B0800031D003401341130AA00A9010A128A1108
:100B1800CF24831203133208AA000C30A9000A124A
:100B28008A11CF2483123108AA000930A9000A12B9
:100B38008A11CF2483127F30AF00FE30B0000A1232
:100B48008A11AA2DFF30B007031CAF030D30AA008D
:100B58000A128A11E12401390A128A11031DC52DCE
:100B68002F08FB003008FA00FD010130FC0080303E
:100B7800FB067D067B02031DC32D7C087A02031841
:100B8800A62D0D30AA000A128A11E1240139013A72
:100B98000A128A11031DD32DAD01AD0AF62D0A12D2
:100BA8008A111325003A0A128A110319DE2D023020
:100BB800AD00F62D1030AA000A128A11E124FE3980
:100BC800AE00AA001030A9000A128A11CF2483129D
:100BD8002E080138AA001030A9000A128A11CF2461
:100BE8008312AD012D080800AA010B30A9000A12D2
:100BF8008A11CF2483120313E130AA00A9010A1233
:100C08008A11CF2483123208AA000C30A9000A12D4
:100C18008A11CF2483123108AA000930A9000A12C8
:100C28008A11CF2483127F30AF00FE30B0000A1241
:100C38008A11222EFF30B007031CAF030D30AA0023
:100C48000A128A11E12401390A128A11031D3D2E64
:100C58002F08FB003008FA00FD010130FC0080304D
:100C6800FB067D067B02031D3B2E7C087A020318D7
:100C78001E2E0D30AA000A128A11E1240139013A08
:100C88000A128A11031D4B2EAD01AD0A6E2E0A12EF
:100C98008A111325003A0A128A110319562E0230B6
:100CA800AD006E2E1030AA000A128A11E124FE3916
:100CB800AE00AA001030A9000A128A11CF248312AC
:100CC8002E080138AA001030A9000A128A11CF2470
:100CD8008312AD01F030AA000B30A9000A128A1164
:100CE800CF2483122D0808003F30AA00A9010A1258
:100CF8008A11CF2483120313AA010B30A9000A1208
:100D08008A11CF240800FB30AA00A9010A128A110F
:100D1800CF24831203132B08AA000930A9000A1252
:100D28008A11CF2483122C08AA000C30A9000A12B9
:100D38008A11CF248312F930AA00A9010A128A1154
:100D4800CF248312F030AA000B30A9000A128A11AE
:100D5800CF248312F130AA00A9010A128A11CF24E4
:100D680008001930AA001030A9000A128A11CF24ED
:100D780008000930AA001030A9000A128A11CF24ED
:100D88000800030E83120313A2007A08A3007B084D
:100D9800A4007C08A5007D08A6000408A7004C084C
:100DA8000319452F013A0319002F033A031D802F19
:100DB800C21FE02E8714E12E87100310C20DC90A46
:100DC80001304906031DF02E4A08FA0043087A024A
:100DD8000318F02ECD01812F08304906031D812FFD
:100DE800C9014308A800280AC3002808A23E8400B5
:100DF80083130008C200812F0310C20D4214070894
:100E08000239031D4210C90A08304906031D812F03
:100E1800C90148080319172F013A03192D2F033A5E
:100E280003191D2F242FCC30420603192D2FCD0175
:100E38002D2F4208CB00BF3E031C2D2FCB012D2F99
:100E48004508223E8400420883178000C50A3F30C7
:100E5800C5054808FA00FB014B08FC00FD010230FB
:100E6800FC070318FD0A8030FB067D067B02031D84
:100E78003F2F7C087A02031C432F4E16CD01C80A67
:100E8800812F0310C20D421407080239031D4210B6
:100E9800C90A4E1C6D2F33304206031D562F0130F0
:100EA800CD00622F553042060319622FAA30420640
:100EB8000319622FC708031D622FC70AC708031941
:100EC800662FC70A4708F53E031C812F4E104E16A1
:100ED800812F553042060319752FAA304206031D8B
:100EE800772FC60A782FC6014608FC3E031C812FBF
:100EF8004E14CE15C701812FCD018B102708840011
:100F08002608FD002508FC002408FB002308FA0039
:100F1800220E8300210E8A00A00E200E0900A22FA7
:100F2800981C9C2F8316981298168312181218165C
:100F3800181DA22F1A0883169812981683120C1ED1
:100F4800942F2A0899002908FB002A08FA000800AB
:100F5800BB2F981CB52F8316981298168312181257
:100F68001816181DBB2F1A08831698129816831284
:100F78008C1EAD2F1A08FA00FB0108000A340D3444
:100F880045346E34743465347234203463346834D0
:100F980061347234613463347434653472342034A7
:100FA80074346F34203462346534203473346534D7
:100FB8006E34743420347734683465346E342034B5
:100FC80062347534743474346F346E34203432348B
:100FD8002034693473342034703472346534733493
:100FE8007334653464343A342034003420343A3469
:100FF8002034003420340034AB01AB0A0030AC009C
:101008002C08FA000A128A1158217E088312031349
:10101800AA002B08A9000A128A11CF2483120313ED
:10102800AB0A2C0AAC002B08E33E0A128A15031CF3
:1010380004284030AB001C30AC002C08FA000A121F
:101048008A1158217E08AA002B08A9000A128A11C1
:10105800CF2483120313AB0A2C0AAC002B08BB3E27
:101068000A128A15031C21282130FA000A128A1153
:1010780058217E08D7002230FA0058217E08D8006F
:101088002430FA0058217E08D9002530FA0058216A
:101098007E08DA002630FA0058217E08D60027306C
:1010A800FA0058217E08DB0008000830AB00153034
:1010B800AC002230AD000A168A11002083120313F7
:1010C800B1010830AB001630AC00E530AD000A16AF
:1010D8008A11002083120313AF013108B0000A16E9
:1010E8008A11E720831203130830AB000730AC00E5
:1010F800FA30AD000A168A11002083120313310852
:10110800AA000A128A11E12483120313B200AF0164
:101118003208B0000A168A11E72083120313083038
:10112800AB001630AC00EF30AD000A168A112D2046
:1011380083120313B10A3108E33E0A128A15031C0D
:1011480065284030B1000830AB001630AC00E530FF
:10115800AD000A168A11002083120313AF0131086B
:10116800B0000A168A11E720831203130830AB0077
:101178000730AC00FA30AD000A168A11002083123D
:1011880003133108AA000A128A11E12483120313F7
:10119800B200AF013208B0000A168A11E7208312A4
:1011A80003130830AB001630AC00EF30AD000A1660
:1011B8008A112D2083120313B10A3108B93E0A128D
:1011C8008A1503180800A72808000830AB00123059
:1011D800AC007D30AD000A168A112D20831203134E
:1011E8000830AB001330AC006D30AD000A168A1120
:1011F8002D20831203130830AB001530AC007E306D
:10120800AD000A168A112D20831203130830AB0093
:101218001330AC000930AD000A168A112D20831254
:1012280003130830AB001530AC00A230AD000A162D
:101238008A112D20831203130830AB001330AC0041
:101248008630AD000A168A112D2083120313083048
:10125800AB001530AC009030AD000A168A112D2075
:10126800831203130830AB001330AC005430AD00C8
:101278000A168A112D20831203130830AB0015308B
:10128800AC006C30AD000A168A112D2083120313AE
:101298000830AB001330AC009F30AD000A168A113D
:1012A8002D20831203130830AB001530AC005A30E0
:1012B800AD000A168A112D20831203130830AB00E3
:1012C8001330AC002230AD000A168A112D2083128B
:1012D80003130830AB001530AC000F30AD000A1610
:1012E8008A112D20831203130830AB001230AC0092
:1012F800EF30AD000A168A112D208312031308302F
:10130800AB001530AC003530AD000A168A112D201F
:10131800831203130830AB001230AC00BB30AD00B1
:101328000A168A112D20831203130830AB001430DB
:10133800AC005230AD000A168A112D208312031317
:101348000830AB001630AC000330AD000A168A1125
:101358000020831203130A128A11AC277B08831218
:101368000313B0007A08B1000830AB001630AC00A7
:10137800EF30AD000A168A112D200F30FB00213006
:10138800831203133107FC0030080318013E7B0762
:10139800FD0001307C07FA0000300318013E7D078C
:1013A800FB000A128A11FC2002390030031D0130AB
:1013B800003A0A128A150319EB290301FB003108C8
:1013C8005F39FA007B08B2007A08B300EF293008C9
:1013D800B2003108B3003318232A33190B2AB31883
:1013E800002A3308303A32040319522A3308383AAB
:1013F800320403197A2AA12A3308323A320403192B
:101408005C2A3308423A32040319892AA12A331B79
:10141800182A3308343A32040319662A3308363A4C
:1014280032040319702AA12A3308443A32040319F2
:10143800932A3308463A320403199D2AA12A331BFA
:10144800422A3319372A3308313A32040319572A02
:101458003308393A320403197F2A3308333A3204FD
:101468000319612AA12A3308353A320403196B2A71
:101478003308373A32040319752AA12A3308413A46
:1014880032040319842A3308453A32040319982A86
:101498003308433A320403198E2AA12A0730AE00D2
:1014A8002530AF00A12A0330AE002530AF00A12AB5
:1014B8001730AE002530AF00A12A1330AE0025301A
:1014C800AF00A12A2730AE002530AF00A12A233073
:1014D800AE002530AF00A12A3730AE002530AF006E
:1014E800A12A3330AE002530AF00A12A4730AE0024
:1014F8003F30AF00A12A4330AE003F30AF00A12AF1
:101508005730AE003F30AF00A12A5330AE003F3015
:10151800AF00A12A5530AE003F30AF00A12A5130AC
:10152800AE003F30AF00A12A5430AE003F30AF00CC
:10153800A12A5030AE003F30AF002E08AA0011306B
:10154800A9000A128A11CF241030FA00831203135B
:101558002E08FE000A128A1107212F08AA0042301D
:10156800A9000A128A11CF241E30FA00831203132D
:101578002F08FE000A128A11072108000830AB0064
:101588001230AC005D30AD000A168A112D2083128E
:1015980003130830AB001430AC003C30AD000A1621
:1015A8008A112D20831203130830AB001430AC00CD
:1015B8002630AD000A168A112D2083120313083035
:1015C800AB001430AC001030AD000A168A112D2083
:1015D800831203130830AB001530AC00C530AD00E2
:1015E8000A168A110020831203130A128A11AC27E3
:1015F8007A0883120313AE000830AB001630AC0033
:10160800EF30AD000A168A112D20831203132E081D
:10161800213EFC000F300318013EFD0001307C071D
:10162800FA0000300318013E7D07FB000A128A11F8
:10163800FC2002390030031D0130003A0A128A15D5
:101648000319302B2E08FA00FB015F30FA057B08DE
:10165800B0007A08B100332BB0012E08B100310870
:10166800343A30040319432B3108383A300403194B
:10167800822B3108393A30040319BF2BFB2B213058
:10168800AE000030AF001130B000D330B1002F08E9
:10169800FA00522B30088A00310882004E23FE00DF
:1016A8000A128A110721AE0301303107FA0000300F
:1016B8000318013E3007B0007A08B1002F0AAF00C6
:1016C800AE080A128A15031D4B2B2430FA0081300C
:1016D800FE000A128A1107212530FA004430FE0064
:1016E80007212630FA004830FE0007212730FA008B
:1016F8007030FE0007210A128A15FB2B2130AE003C
:101708000030AF001130B000F630B1002F08FA00F9
:10171800912B30088A00310882008D23FE000A12BE
:101728008A110721AE0301303107FA00003003188F
:10173800013E3007B0007A08B1002F0AAF00AE08AA
:101748000A128A15031D8A2B2430FA00F330FE0092
:101758000A128A1107212530FA008C30FE00072171
:101768002630FA003030FE0007212730FA00072122
:101778000A128A15FB2B2130AE000030AF00123060
:10178800B0001930B1002F08FA00CE2B30088A00BB
:1017980031088200CA23FE000A128A110721AE030B
:1017A80001303107FA0000300318013E3007B0005D
:1017B8007A08B1002F0AAF00AE080A128A15031D75
:1017C800C72B2430FA00F330FE000A128A110721D1
:1017D8002530FA008C30FE0007212630FA00303020
:1017E800FE0007212730FA006830FE0007210A12A0
:1017F8008A1500202130FA005930FE000A128A1199
:1018080007212230FA005A30FE0007215930D7004C
:101818005A30D8002430FA0058217E08D9002530E3
:10182800FA0058217E08DA002630FA0058217E088E
:10183800D6002730FA0058217E08DB002330FA0052
:101848000130FE00072108000830AB001130AC0061
:101858007230AD000A168A112D2083120313083046
:10186800AB000F30AC00A230AD000A168A112D2053
:10187800831203130830AB001630AC003E30AD00C5
:101888000A168A112D20831203132430B4000A1279
:101898008A11AC277A0883120313B200213EFC0098
:1018A8000F300318013EFD0001307C07FA000030BC
:1018B8000318013E7D07FB000A128A1128204439CB
:1018C8000A128A1503194B2C3208AB000A168A1122
:1018D8006720FA007A0EF03983120313B1000A1256
:1018E8008A11AC277B0883120313B5007A08B60067
:1018F800AB000A168A11672083120313B1070A1274
:101908008A11AC277A0883120313B200213EFC0027
:101918000F300318013EFD0001307C07FA0000304B
:101928000318013E7D07FB000A128A11282044395A
:101938000A128A150319832C3208AB000A168A1179
:101948006720FA007A0EF03983120313B3000A12E3
:101958008A11AC277B0883120313B5007A08B600F6
:10196800AB000A168A11672083120313B3073108E4
:10197800F63E0A128A15031CC72C3108DE3E0318EE
:10198800C72CB10AD42C22303106031DCE2C0A30C4
:10199800B100D42C23303106031DD42C1C30B100E7
:1019A8003108FA00FB01FF30FA07031CFB037B0830
:1019B800AF007A08B0000A168A11E72083120313D1
:1019C8000830AB000730AC00FA30AD000A168A11B7
:1019D800002083120313AF013308B0000A168A11DE
:1019E800E720831203130830AB001630AC00EF3049
:1019F800AD000A168A112D2083120313B1080A12AA
:101A08008A1503190F2D3103003EFA003308FE0032
:101A18000A128A1107210A128A15B40B4B2C0A12D2
:101A28008A15002008000830AB001230AC009D3049
:101A3800AD000A168A112D20831203130830AB005B
:101A48001230AC00D530AD000A168A112D20831251
:101A580003130830AB001430AC007C30AD000A161C
:101A68008A112D20831203130830AB001430AC0008
:101A78006730AD000A168A112D208312031308302F
:101A8800AB001630AC003030AD000A168A112D209C
:101A9800831203130830AB001630AC00B830AD0029
:101AA8000A168A112D20831203130830AB00163052
:101AB800AC00D030AD000A168A112D208312031312
:101AC8000830AB001630AC009F30AD000A168A1102
:101AD8002D20831203130830AB001330AC003B30C9
:101AE800AD000A168A112D20831203130830AB00AB
:101AF8001130AC00A330AD000A168A112D208312D4
:101B080003130830AB001230AC003C30AD000A16AD
:101B18008A112D2008003B08213EFC000F300318D5
:101B2800013EFD0001307C07FA0000300318013E39
:101B38007D07FB000A128A11FC2002390030031DC0
:101B48000130003A0A128A150319B42D3B08FA002D
:101B5800FB015F30FA057B08B9007A08BA00B72D97
:101B6800B9013B08BA00BA18D62D3A1ACB2D3A0853
:101B7800443A39040319F42D3A08453A390403194B
:101B8800F82D3A084C3A390403193A2EBD2E3A0872
:101B9800543A390403192D2E3A08583A39040319CE
:101BA8000800BD2E3A19E82D3A08423A39040319BB
:101BB8005C2E3A08523A39040319202E3A08433A5F
:101BC80039040319002EBD2E3A084F3A3904031977
:101BD800B92E3A08463A39040319FC2D0000BD2EE7
:101BE8000A128A15592008000A128A15E9200800E5
:101BF8000A128A15C22208000A128A111325003A0D
:101C08000A128A150319142E831203130830AB0025
:101C18001630AC009230AD000A168A112D2008004B
:101C2800831203130830AB001530AC00B430AD009C
:101C38000A168A112D2008005B08B2005A08B10064
:101C48000A128A11872583160313C030810087146E
:101C580008005608B2005908B1000A128A11F8257E
:101C68008316031380308100871008000D30AA0006
:101C78000A128A11E12401390A128A150319502E11
:101C8800831203130830AB001630AC00AC30AD0043
:101C98000A168A112D200800831203130830AB009E
:101CA8001530AC00D530AD000A168A112D20080079
:101CB8000830AB001130AC003C30AD000A168A1178
:101CC80000202130FA0083120313B8007A08B70005
:101CD8000A128A11AC277A08FE0083120313B8008F
:101CE8003708FA000A128A1107210830AB001630AB
:101CF800AC00EF30AD000A168A112D2083120313B1
:101D08000830AB000730AC00C230AD000A168A11AB
:101D180000202230FA0083120313B8007A08B700B3
:101D28000A128A11AC277A08FE0083120313B8003E
:101D38003708FA000A128A1107210830AB0016305A
:101D4800AC00EF30AD000A168A112D202130FA00C0
:101D5800831203130A128A1158217E08D7002230F1
:101D6800FA0058217E08D80008000A128A1528248B
:101D780008000A128A15172508000A128A1517255D
:101D8800831203130830AB001630AC00EC30AD0002
:101D98000A168A110020831203130A128A11AC272B
:101DA8007B0883120313BC007A08BD000830AB001F
:101DB8001630AC00EF30AD000A168A112D208312C0
:101DC80003133D08BB000A128A158F250F30FB004C
:101DD8002130831203133D07FC003C080318013E21
:101DE8007B07FD0001307C07FA0000300318013E34
:101DF8007D07FB000A128A11FC2002390030031DFE
:101E08000130003A0A128A150319142F0301FB0046
:101E18003D085F39FA007B08BE007A08BF00182F1A
:101E28003C08BE003D08BF003F08583A3E04031D69
:101E3800C42E0A128A1500200800003420342034E9
:101E480020342034203420342034203420342834E2
:101E580028342834283428342034203420342034BA
:101E680020342034203420342034203420342034CA
:101E78002034203420342034203420348834103462
:101E8800103410341034103410341034103410342A
:101E98001034103410341034103410340434043432
:101EA800043404340434043404340434043404346A
:101EB80010341034103410341034103410344134C9
:101EC8004134413441344134413401340134013422
:101ED8000134013401340134013401340134013452
:101EE8000134013401340134013401340134013442
:101EF8000134103410341034103410341034423497
:101F080042344234423442344234023402340234D9
:101F18000234023402340234023402340234023409
:101F280002340234023402340234023402340234F9
:101F380002341034103410341034203454346834DB
:101F48006534203464346134743461342034733437
:101F580068346F3475346C346434203462346534D6
:101F6800203469346E3420344534453450342034B8
:101F780066346F3472346D346134743420342834E8
:101F8800463469346C3465347C3450347234693482
:101F98006E3474342034723465346734693473347D
:101FA8007434653472347334203474346F342034A8
:101FB800663469346C3465342034663472346F3472
:101FC8006D3420345234653467346934733474346E
:101FD800653472342034763469346534773429347E
:101FE8002E34003443346F346D34703469346C34B7
:101FF80065346434203400341D282B08FC002C0878
:10200800FB002D08FA000A128A11E120FA00A90142
:102018007A08AA000A128A1193278312031301303F
:102028002D07FA0000300318013E2C07AC007A088F
:10203800AD002B08FC002C08FB002D08FA000A1242
:102048008A11E120003A0A168A11031908000128AA
:1020580008004A282B08FC002C08FB002D08FA0071
:102068000A128A11E120FA00A9017A08AA000A12C4
:102078008A1193278312031301302D07FA000030C9
:102088000318013E2C07AC007A08AD002B08FC00B1
:102098002C08FB002D08FA000A128A11E120003AE8
:1020A8000A168A11031D2E28A9010A30AA000A124D
:1020B8008A11932783120313A9010D30AA000A126B
:1020C8008A11932708002B08D03E031C72282B087E
:1020D800C63E031872282B08D03E08002B08213E64
:1020E800FC000F300318013EFD0001307C07FA00A8
:1020F80000300318013E7D07FB000A128A11FC20FC
:1021080002390030031D0130003A0A168A110319FA
:1021180097282B08FA00FB015F30FA057B08A90015
:102128007A08AA009A28A9012B08AA002908FB0006
:102138002A08FA00FD014130FC008030FB067D06CC
:102148007B02031DA9287C087A02031C00342B0893
:10215800213EFC000F300318013EFD0001307C07D2
:10216800FA0000300318013E7D07FB000A128A11AD
:10217800FC2002390030031D0130003A0A168A118A
:102188000319D0282B08FA00FB015F30FA057B08F9
:10219800A9007A08AA00D328A9012B08AA002908AF
:1021A800FB002A08FA00FD014730FC008030FB06DE
:1021B8007D067B02031DE2287C087A02031800349E
:1021C8002B08C93E0800A9013030AA000A128A115A
:1021D800932783120313A9017830AA000A128A11DF
:1021E8009327831203132F08AD003008AE00043084
:1021F800AC002D0E0F39FA00AB000A307A020A162D
:102208008A11031818292B08FA00FB013030FA0745
:102218000318FB0A7B08A9007A08AA000A128A1187
:1022280093270A168A1126292B08FA00FB01373052
:10223800FA070318FB0A7B08A9007A08AA000A1201
:102248008A119327831203132D08FB002E08FA0026
:102258000430FC000A128A116A217B08AD007A0852
:10226800AE000A168A11AC0303190800FD280800FD
:1022780045346E34743465347234203463346834CD
:1022880061347234613463347434653472342034A4
:1022980074346F34203462346534203473346534D4
:1022A8006E34743420347734683465346E342034B2
:1022B80062347534743474346F346E342034313489
:1022C8002034693473342034703472346534733490
:1022D8007334653464343A342034003454347234FA
:1022E80061346E3473346634653472342034633444
:1022F8006F346E34663469346734753472346134DB
:10230800743469346F346E34203464346134743412
:1023180061342034663472346F346D34203453346D
:102328006D34613472347434523446342034533446
:1023380074347534643469346F342E3400344F3453
:1023480020342D3420344C346F34613464342034D8
:1023580063346F346E346634693467347534723478
:102368006134743469346F346E34203464346134C5
:10237800743461342034663472346F346D342034EC
:1023880053346D34613472347434523446342034E6
:10239800533474347534643469346F3400346634B7
:1023A800C03400344134FB342D3402348034443496
:1023B80012340F347034103426348E346934473470
:1023C800703401341C34163410340A34063403349F
:1023D800013402340034003400343F340034003413
:1023E8000034003458346034003458345B34433497
:1023F8000134AB348C343234FF3430341034263466
:10240800903469344734103401341C341634103491
:102418000A340634033401340F34003400340034F1
:102428003F340034003400340034C734603400349E
:102438005B34EE34F4340134AB348C343234FF344E
:1024480068341034263491346934473410340134F4
:102458001C34163410340A34063403340134063478
:102468000034003400343F34003400340034003485
:10247800583420342D342034453478346934743455
:102488002034663472346F346D34203463346F34DE
:102498006E34663469346734753472346134743434
:1024A80069346F346E3420346D3465346E34753469
:1024B8000034533465346C346534633474342034F4
:1024C800643465346634613475346C34743420345F
:1024D80063346F346E3466346934673475347234F7
:1024E8006134743469346F346E343A340A340D34D8
:1024F8000034533465346C346534633474342034B4
:102508006434613474346134203472346134743422
:1025180065342034283469346E3420346B346234A2
:10252800693474342F34733429343A340A340D340A
:1025380000345234463420344D346F3464346534B6
:102548006D34203443346F346E3466346934673400
:10255800753472346134743469346F346E342034B1
:102568004D3465346E3475340A340D3400344534D2
:1025780020342D342034333438342E3434346B340E
:102588006234693474342F34733420344D346134F4
:102598006E34633468346534733474346534723437
:1025A8000034443420342D342034443475346D34AC
:1025B800703420344334433431343034303430349C
:1025C8002034723465346734693473347434653450
:1025D800723473340034433420342D34203431348D
:1025E80039342E3432346B346234693474342F34D1
:1025F800733420344D3461346E3463346834653454
:1026080073347434653472340034323420342D34E5
:10261800203430342E3436346B34623469347434B4
:102628002F34733420344D3461346E346334683459
:10263800653473347434653472340034413420346E
:102648002D34203439342E3436346B3462346934C2
:1026580074342F34733420344D3461346E3463341D
:1026680068346534733474346534723400344234F5
:1026780020342D34203442347534743474346F3437
:102688006E34203463346F346E346634693467349E
:10269800753472346134743469346F346E34003490
:1026A800363420342D34203432342E3434346B34E0
:1026B8006234693474342F34733420344D346134C3
:1026C8006E34633468346534733474346534723406
:1026D8000034303420342D34203430342E34333424
:1026E8006B346234693474342F34733420344D3489
:1026F80061346E34633468346534733474346534E7
:1027080072340034343420342D34203431342E34AF
:1027180032346B346234693474342F347334203473
:102728004D3461346E3463346834653473347434CE
:10273800653472340034383420342D342034343441
:102748002E3438346B346234693474342F3473342F
:1027580020344D3461346E346334683465347334F2
:102768007434653472340034333438342E343434A9
:102778006B346234693474342F34733420344D34F8
:1027880061346E3463346834653473347434653456
:1027980072340034523458342034433461346C3445
:1027A8006934623472346134743469346F346E3429
:1027B80020346634613469346C34653464340034EC
:1027C800543458342034433461346C3469346234BA
:1027D80072346134743469346F346E34203466343E
:1027E800613469346C3465346434003431343934D8
:1027F8002E3432346B346234693474342F34733485
:1028080020344D3461346E34633468346534733441
:102818007434653472340034393420342D3420341F
:102828003934303435342E343034303420344D3467
:1028380048347A342C3420342B34353464344234DC
:102848006D340034383420342D3420343834363460
:1028580039342E343834353420344D3448347A34CD
:102868002C3420342B343534643442346D34003401
:10287800343420342D3420343434333433342E3447
:102888003334303420344D3448347A342C342034C2
:102898002B343034643442346D34003446342034BC
:1028A8002D342034373436342E3438346B34623493
:1028B800693474342F34733420344E3452345A34D7
:1028C8000A340D340034463420342D342034443452
:1028D80065346634613475346C347434203473343C
:1028E80065347434743469346E3467347334003442
:1028F800453420342D342034533465347434203432
:1029080052344634203464346134743461342034AD
:102918007234613474346534003439342E343634C6
:102928006B346234693474342F34733420344D3446
:1029380061346E34633468346534733474346534A4
:102948007234003431342E3432346B3462346934A6
:1029580074342F34733420344D3461346E3463341A
:102968006834653473347434653472340034303404
:102978002E3436346B346234693474342F347334FF
:1029880020344D3461346E346334683465347334C0
:10299800743465347234003432342E3434346B3445
:1029A8006234693474342F34733420344D346134D0
:1029B8006E34633468346534733474346534723413
:1029C800003430342E3433346B3462346934743424
:1029D8002F34733420344D3461346E3463346834A6
:1029E80065347334743465347234003434342E34BA
:1029F80038346B346234693474342F34733420348B
:102A08004D3461346E3463346834653473347434EB
:102A1800653472340034423420342D342034313457
:102A280039342E3432346B346234693474342F348C
:102A3800733420344E3452345A34003452346534AA
:102A480067346934733474346534723420346434CC
:102A580075346D3470343A340A340D340A340D3414
:102A68000034443420342D342034333438342E3474
:102A780034346B346234693474342F34733420340E
:102A88004E3452345A34003449346E347634613416
:102A98006C3469346434203464346134743461349B
:102AA8002034723461347434653400343934203459
:102AB8002D34203439342E3436346B34623469344E
:102AC80074342F34733420344E3452345A3400342E
:102AD800373420342D34203434342E3438346B34A5
:102AE8006234693474342F34733420344E3452349D
:102AF8005A340034313420342D34203430342E34D8
:102B080036346B346234693474342F34733420347B
:102B18004E3452345A340034353420342D34203471
:102B280032342E3434346B346234693474342F3490
:102B3800733420344E3452345A340034333420340D
:102B48002D34203431342E3432346B3462346934C9
:102B580074342F34733420344E3452345A3400349D
:102B6800433461346C34693462347234613474349B
:102B7800653420346634613469346C3465346434C3
:102B8800003445346E34743465347234203463341C
:102B980068346F3469346334653420343A3420340B
:102BA800003450344C344C3420346F34753474341D
:102BB80020346F34663420346C346F3463346B34AF
:102BC8000034333438342E3434346B34623469345A
:102BD80074342F34733420344E3452345A3400341D
:102BE800373436342E3438346B34623469347434C0
:102BF8002F34733420344E3452345A34003445342C
:102C08006E347434653472342034633468346F3409
:102C180069346334653420343E3400343134393413
:102C28002E3432346B346234693474342F34733450
:102C380020344E3452345A3400345234463420341A
:102C48004D346F34643465346D34203472346534F3
:102C58006134643479340034433420342D342034DE
:102C6800433461346C34693462347234613474349A
:102C780065340034533465346E3464342034643439
:102C880061347434613420346E346F3477340034F2
:102C980032342E3434346B346234693474342F341F
:102CA800733420344E3452345A34003434342E348D
:102CB80038346B346234693474342F3473342034C8
:102CC8004E3452345A34003439342E3436346B345A
:102CD8006234693474342F34733420344E345234AB
:102CE8005A34003431342E3432346B34623469341B
:102CF80074342F34733420344E3452345A340034FC
:102D080030342E3436346B346234693474342F34AE
:102D1800733420344E3452345A34003443346134DA
:102D28006C346934623472346134743465342034F8
:102D38004F344B3400344C3420342D342034503448
:102D48004C344C3420346C346F3463346B3400347A
:102D580050344C344C34203469346E3420346C3460
:102D68006F3463346B340034523420342D342034BF
:102D78005234583420346D346F346434653400343C
:102D88004D346134793420342034383420343234AA
:102D98003034303433340034543420342D34203437
:102DA8005434583420346D346F346434653400340A
:102DB800313430343A34313439343A3432343834C2
:102DC800003441346434643472342E342034003492
:082DD8003E34003400340034E5
:00000001FF
